{
  "_format": "hh-sol-artifact-1",
  "contractName": "KYC",
  "sourceName": "contracts/KYC.sol",
  "abi": [
    {
      "inputs": [],
      "stateMutability": "nonpayable",
      "type": "constructor"
    },
    {
      "inputs": [
        {
          "internalType": "string",
          "name": "_bankName",
          "type": "string"
        },
        {
          "internalType": "address",
          "name": "_bankAddress",
          "type": "address"
        },
        {
          "internalType": "string",
          "name": "_regNumber",
          "type": "string"
        }
      ],
      "name": "addBank",
      "outputs": [],
      "stateMutability": "nonpayable",
      "type": "function"
    },
    {
      "inputs": [
        {
          "internalType": "string",
          "name": "_userName",
          "type": "string"
        },
        {
          "internalType": "string",
          "name": "_customerData",
          "type": "string"
        }
      ],
      "name": "addCustomer",
      "outputs": [],
      "stateMutability": "nonpayable",
      "type": "function"
    },
    {
      "inputs": [
        {
          "internalType": "string",
          "name": "_userName",
          "type": "string"
        },
        {
          "internalType": "string",
          "name": "_customerData",
          "type": "string"
        }
      ],
      "name": "addKycRequest",
      "outputs": [],
      "stateMutability": "nonpayable",
      "type": "function"
    },
    {
      "inputs": [
        {
          "internalType": "address",
          "name": "_bankAddress",
          "type": "address"
        }
      ],
      "name": "bankComplaints",
      "outputs": [
        {
          "internalType": "uint256",
          "name": "",
          "type": "uint256"
        }
      ],
      "stateMutability": "view",
      "type": "function"
    },
    {
      "inputs": [
        {
          "internalType": "string",
          "name": "_userName",
          "type": "string"
        }
      ],
      "name": "downVote",
      "outputs": [],
      "stateMutability": "nonpayable",
      "type": "function"
    },
    {
      "inputs": [
        {
          "internalType": "address",
          "name": "_bankAddress",
          "type": "address"
        },
        {
          "internalType": "bool",
          "name": "_isAllowedToVote",
          "type": "bool"
        }
      ],
      "name": "modifyBank",
      "outputs": [],
      "stateMutability": "nonpayable",
      "type": "function"
    },
    {
      "inputs": [
        {
          "internalType": "string",
          "name": "_userName",
          "type": "string"
        },
        {
          "internalType": "string",
          "name": "_newCustomerData",
          "type": "string"
        }
      ],
      "name": "modifyCustomer",
      "outputs": [],
      "stateMutability": "nonpayable",
      "type": "function"
    },
    {
      "inputs": [
        {
          "internalType": "address",
          "name": "_bankAddress",
          "type": "address"
        }
      ],
      "name": "removeBank",
      "outputs": [],
      "stateMutability": "nonpayable",
      "type": "function"
    },
    {
      "inputs": [
        {
          "internalType": "string",
          "name": "_userName",
          "type": "string"
        }
      ],
      "name": "removeKycRequest",
      "outputs": [],
      "stateMutability": "nonpayable",
      "type": "function"
    },
    {
      "inputs": [
        {
          "internalType": "address",
          "name": "_bankAddress",
          "type": "address"
        },
        {
          "internalType": "string",
          "name": "_bankName",
          "type": "string"
        }
      ],
      "name": "reportBank",
      "outputs": [],
      "stateMutability": "nonpayable",
      "type": "function"
    },
    {
      "inputs": [
        {
          "internalType": "string",
          "name": "_userName",
          "type": "string"
        }
      ],
      "name": "upVote",
      "outputs": [],
      "stateMutability": "nonpayable",
      "type": "function"
    },
    {
      "inputs": [
        {
          "internalType": "address",
          "name": "_bankAddress",
          "type": "address"
        }
      ],
      "name": "viewBank",
      "outputs": [
        {
          "internalType": "string",
          "name": "",
          "type": "string"
        },
        {
          "internalType": "address",
          "name": "",
          "type": "address"
        },
        {
          "internalType": "uint256",
          "name": "",
          "type": "uint256"
        },
        {
          "internalType": "uint256",
          "name": "",
          "type": "uint256"
        },
        {
          "internalType": "bool",
          "name": "",
          "type": "bool"
        },
        {
          "internalType": "string",
          "name": "",
          "type": "string"
        }
      ],
      "stateMutability": "view",
      "type": "function"
    },
    {
      "inputs": [
        {
          "internalType": "string",
          "name": "_userName",
          "type": "string"
        }
      ],
      "name": "viewCustomer",
      "outputs": [
        {
          "internalType": "string",
          "name": "",
          "type": "string"
        },
        {
          "internalType": "string",
          "name": "",
          "type": "string"
        },
        {
          "internalType": "bool",
          "name": "",
          "type": "bool"
        },
        {
          "internalType": "uint256",
          "name": "",
          "type": "uint256"
        },
        {
          "internalType": "uint256",
          "name": "",
          "type": "uint256"
        },
        {
          "internalType": "address",
          "name": "",
          "type": "address"
        }
      ],
      "stateMutability": "view",
      "type": "function"
    }
  ],
  "bytecode": "0x608060405234801561001057600080fd5b5033600360006101000a81548173ffffffffffffffffffffffffffffffffffffffff021916908373ffffffffffffffffffffffffffffffffffffffff160217905550612161806100616000396000f3fe608060405234801561001057600080fd5b50600436106100cf5760003560e01c8063881594641161008c578063b238520411610066578063b238520414610216578063ccfa8e7114610232578063d4a46c511461024e578063f72860ca1461026a576100cf565b806388159464146101a95780639649650c146101de578063a1d9def2146101fa576100cf565b8063107925bb146100d45780632ad45fe7146101095780633190abc014610125578063462ff50314610141578063734ae8a31461015d5780637c3b0d3614610179575b600080fd5b6100ee60048036038101906100e99190611800565b610286565b60405161010096959493929190611946565b60405180910390f35b610123600480360381019061011e9190611a0d565b6104b3565b005b61013f600480360381019061013a9190611a4d565b6105a1565b005b61015b60048036038101906101569190611800565b610773565b005b61017760048036038101906101729190611800565b610861565b005b610193600480360381019061018e9190611ac5565b61097b565b6040516101a09190611af2565b60405180910390f35b6101c360048036038101906101be9190611ac5565b6109c7565b6040516101d596959493929190611b0d565b60405180910390f35b6101f860048036038101906101f39190611ac5565b610cbb565b005b610214600480360381019061020f9190611800565b610dfb565b005b610230600480360381019061022b9190611b7c565b610f6e565b005b61024c60048036038101906102479190611bd8565b611071565b005b61026860048036038101906102639190611a4d565b611245565b005b610284600480360381019061027f9190611a4d565b611424565b005b60608060008060008060008760405161029f9190611c9f565b90815260200160405180910390206000016000886040516102c09190611c9f565b90815260200160405180910390206001016000896040516102e19190611c9f565b908152602001604051809103902060020160009054906101000a900460ff1660008a6040516103109190611c9f565b90815260200160405180910390206003015460008b6040516103329190611c9f565b90815260200160405180910390206004015460008c6040516103549190611c9f565b908152602001604051809103902060050160009054906101000a900473ffffffffffffffffffffffffffffffffffffffff1685805461039290611ce5565b80601f01602080910402602001604051908101604052809291908181526020018280546103be90611ce5565b801561040b5780601f106103e05761010080835404028352916020019161040b565b820191906000526020600020905b8154815290600101906020018083116103ee57829003601f168201915b5050505050955084805461041e90611ce5565b80601f016020809104026020016040519081016040528092919081815260200182805461044a90611ce5565b80156104975780601f1061046c57610100808354040283529160200191610497565b820191906000526020600020905b81548152906001019060200180831161047a57829003601f168201915b5050505050945095509550955095509550955091939550919395565b600360009054906101000a900473ffffffffffffffffffffffffffffffffffffffff1673ffffffffffffffffffffffffffffffffffffffff163373ffffffffffffffffffffffffffffffffffffffff1614610543576040517f08c379a000000000000000000000000000000000000000000000000000000000815260040161053a90611d63565b60405180910390fd5b80600160008473ffffffffffffffffffffffffffffffffffffffff1673ffffffffffffffffffffffffffffffffffffffff16815260200190815260200160002060040160006101000a81548160ff0219169083151502179055505050565b600073ffffffffffffffffffffffffffffffffffffffff166000836040516105c99190611c9f565b908152602001604051809103902060050160009054906101000a900473ffffffffffffffffffffffffffffffffffffffff1673ffffffffffffffffffffffffffffffffffffffff1614610651576040517f08c379a000000000000000000000000000000000000000000000000000000000815260040161064890611e1b565b60405180910390fd5b6040518060c0016040528083815260200182815260200160001515815260200160008152602001600081526020013373ffffffffffffffffffffffffffffffffffffffff168152506000836040516106a99190611c9f565b908152602001604051809103902060008201518160000190805190602001906106d39291906115c3565b5060208201518160010190805190602001906106f09291906115c3565b5060408201518160020160006101000a81548160ff021916908315150217905550606082015181600301556080820151816004015560a08201518160050160006101000a81548173ffffffffffffffffffffffffffffffffffffffff021916908373ffffffffffffffffffffffffffffffffffffffff1602179055509050505050565b60018060003373ffffffffffffffffffffffffffffffffffffffff1673ffffffffffffffffffffffffffffffffffffffff16815260200190815260200160002060040160006101000a81548160ff021916908315150217905561080b576040517f08c379a000000000000000000000000000000000000000000000000000000000815260040161080290611ead565b60405180910390fd5b600160008260405161081d9190611c9f565b9081526020016040518091039020600301546108399190611efc565b6000826040516108499190611c9f565b90815260200160405180910390206003018190555050565b3373ffffffffffffffffffffffffffffffffffffffff166002826040516108889190611c9f565b908152602001604051809103902060010160009054906101000a900473ffffffffffffffffffffffffffffffffffffffff1673ffffffffffffffffffffffffffffffffffffffff1614610910576040517f08c379a000000000000000000000000000000000000000000000000000000000815260040161090790611f9e565b60405180910390fd5b6002816040516109209190611c9f565b90815260200160405180910390206000808201600061093f9190611649565b6001820160006101000a81549073ffffffffffffffffffffffffffffffffffffffff02191690556002820160006109769190611649565b505050565b6000600160008373ffffffffffffffffffffffffffffffffffffffff1673ffffffffffffffffffffffffffffffffffffffff168152602001908152602001600020600201549050919050565b60606000806000806060600160008873ffffffffffffffffffffffffffffffffffffffff1673ffffffffffffffffffffffffffffffffffffffff168152602001908152602001600020600001600160008973ffffffffffffffffffffffffffffffffffffffff1673ffffffffffffffffffffffffffffffffffffffff16815260200190815260200160002060010160009054906101000a900473ffffffffffffffffffffffffffffffffffffffff16600160008a73ffffffffffffffffffffffffffffffffffffffff1673ffffffffffffffffffffffffffffffffffffffff16815260200190815260200160002060020154600160008b73ffffffffffffffffffffffffffffffffffffffff1673ffffffffffffffffffffffffffffffffffffffff16815260200190815260200160002060030154600160008c73ffffffffffffffffffffffffffffffffffffffff1673ffffffffffffffffffffffffffffffffffffffff16815260200190815260200160002060040160009054906101000a900460ff16600160008d73ffffffffffffffffffffffffffffffffffffffff1673ffffffffffffffffffffffffffffffffffffffff168152602001908152602001600020600501858054610b9a90611ce5565b80601f0160208091040260200160405190810160405280929190818152602001828054610bc690611ce5565b8015610c135780601f10610be857610100808354040283529160200191610c13565b820191906000526020600020905b815481529060010190602001808311610bf657829003601f168201915b50505050509550808054610c2690611ce5565b80601f0160208091040260200160405190810160405280929190818152602001828054610c5290611ce5565b8015610c9f5780601f10610c7457610100808354040283529160200191610c9f565b820191906000526020600020905b815481529060010190602001808311610c8257829003601f168201915b5050505050905095509550955095509550955091939550919395565b600360009054906101000a900473ffffffffffffffffffffffffffffffffffffffff1673ffffffffffffffffffffffffffffffffffffffff163373ffffffffffffffffffffffffffffffffffffffff1614610d4b576040517f08c379a0000000000000000000000000000000000000000000000000000000008152600401610d4290611d63565b60405180910390fd5b600160008273ffffffffffffffffffffffffffffffffffffffff1673ffffffffffffffffffffffffffffffffffffffff16815260200190815260200160002060008082016000610d9b9190611649565b6001820160006101000a81549073ffffffffffffffffffffffffffffffffffffffff0219169055600282016000905560038201600090556004820160006101000a81549060ff0219169055600582016000610df69190611649565b505050565b60018060003373ffffffffffffffffffffffffffffffffffffffff1673ffffffffffffffffffffffffffffffffffffffff16815260200190815260200160002060040160006101000a81548160ff0219169083151502179055610e93576040517f08c379a0000000000000000000000000000000000000000000000000000000008152600401610e8a90612030565b60405180910390fd5b6001600082604051610ea59190611c9f565b908152602001604051809103902060040154610ec19190611efc565b600082604051610ed19190611c9f565b908152602001604051809103902060040181905550600081604051610ef69190611c9f565b908152602001604051809103902060040154600082604051610f189190611c9f565b9081526020016040518091039020600301541015610f6b576001600082604051610f429190611c9f565b908152602001604051809103902060020160006101000a81548160ff0219169083151502179055505b50565b600160008373ffffffffffffffffffffffffffffffffffffffff1673ffffffffffffffffffffffffffffffffffffffff1681526020019081526020016000206002016000815480929190610fc190612050565b91905055506002600160008473ffffffffffffffffffffffffffffffffffffffff1673ffffffffffffffffffffffffffffffffffffffff16815260200190815260200160002060020154111561106d576000600160008473ffffffffffffffffffffffffffffffffffffffff1673ffffffffffffffffffffffffffffffffffffffff16815260200190815260200160002060040160006101000a81548160ff0219169083151502179055505b5050565b600360009054906101000a900473ffffffffffffffffffffffffffffffffffffffff1673ffffffffffffffffffffffffffffffffffffffff163373ffffffffffffffffffffffffffffffffffffffff1614611101576040517f08c379a00000000000000000000000000000000000000000000000000000000081526004016110f890611d63565b60405180910390fd5b6040518060c001604052808481526020018373ffffffffffffffffffffffffffffffffffffffff168152602001600081526020016000815260200160011515815260200182815250600160008473ffffffffffffffffffffffffffffffffffffffff1673ffffffffffffffffffffffffffffffffffffffff16815260200190815260200160002060008201518160000190805190602001906111a49291906115c3565b5060208201518160010160006101000a81548173ffffffffffffffffffffffffffffffffffffffff021916908373ffffffffffffffffffffffffffffffffffffffff160217905550604082015181600201556060820151816003015560808201518160040160006101000a81548160ff02191690831515021790555060a082015181600501908051906020019061123c9291906115c3565b50905050505050565b600073ffffffffffffffffffffffffffffffffffffffff1660008360405161126d9190611c9f565b908152602001604051809103902060050160009054906101000a900473ffffffffffffffffffffffffffffffffffffffff1673ffffffffffffffffffffffffffffffffffffffff16146112f5576040517f08c379a00000000000000000000000000000000000000000000000000000000081526004016112ec90611e1b565b60405180910390fd5b60405180606001604052808381526020013373ffffffffffffffffffffffffffffffffffffffff168152602001828152506002836040516113369190611c9f565b908152602001604051809103902060008201518160000190805190602001906113609291906115c3565b5060208201518160010160006101000a81548173ffffffffffffffffffffffffffffffffffffffff021916908373ffffffffffffffffffffffffffffffffffffffff16021790555060408201518160020190805190602001906113c49291906115c3565b50905050600160003373ffffffffffffffffffffffffffffffffffffffff1673ffffffffffffffffffffffffffffffffffffffff168152602001908152602001600020600301600081548092919061141b90612050565b91905055505050565b600073ffffffffffffffffffffffffffffffffffffffff1660008360405161144c9190611c9f565b908152602001604051809103902060050160009054906101000a900473ffffffffffffffffffffffffffffffffffffffff1673ffffffffffffffffffffffffffffffffffffffff1614156114d5576040517f08c379a00000000000000000000000000000000000000000000000000000000081526004016114cc9061210b565b60405180910390fd5b6002826040516114e59190611c9f565b9081526020016040518091039020600080820160006115049190611649565b6001820160006101000a81549073ffffffffffffffffffffffffffffffffffffffff021916905560028201600061153b9190611649565b50508060008360405161154e9190611c9f565b908152602001604051809103902060010190805190602001906115729291906115c3565b50600080836040516115849190611c9f565b908152602001604051809103902060040181905550600080836040516115aa9190611c9f565b9081526020016040518091039020600301819055505050565b8280546115cf90611ce5565b90600052602060002090601f0160209004810192826115f15760008555611638565b82601f1061160a57805160ff1916838001178555611638565b82800160010185558215611638579182015b8281111561163757825182559160200191906001019061161c565b5b5090506116459190611689565b5090565b50805461165590611ce5565b6000825580601f106116675750611686565b601f0160209004906000526020600020908101906116859190611689565b5b50565b5b808211156116a257600081600090555060010161168a565b5090565b6000604051905090565b600080fd5b600080fd5b600080fd5b600080fd5b6000601f19601f8301169050919050565b7f4e487b7100000000000000000000000000000000000000000000000000000000600052604160045260246000fd5b61170d826116c4565b810181811067ffffffffffffffff8211171561172c5761172b6116d5565b5b80604052505050565b600061173f6116a6565b905061174b8282611704565b919050565b600067ffffffffffffffff82111561176b5761176a6116d5565b5b611774826116c4565b9050602081019050919050565b82818337600083830152505050565b60006117a361179e84611750565b611735565b9050828152602081018484840111156117bf576117be6116bf565b5b6117ca848285611781565b509392505050565b600082601f8301126117e7576117e66116ba565b5b81356117f7848260208601611790565b91505092915050565b600060208284031215611816576118156116b0565b5b600082013567ffffffffffffffff811115611834576118336116b5565b5b611840848285016117d2565b91505092915050565b600081519050919050565b600082825260208201905092915050565b60005b83811015611883578082015181840152602081019050611868565b83811115611892576000848401525b50505050565b60006118a382611849565b6118ad8185611854565b93506118bd818560208601611865565b6118c6816116c4565b840191505092915050565b60008115159050919050565b6118e6816118d1565b82525050565b6000819050919050565b6118ff816118ec565b82525050565b600073ffffffffffffffffffffffffffffffffffffffff82169050919050565b600061193082611905565b9050919050565b61194081611925565b82525050565b600060c08201905081810360008301526119608189611898565b905081810360208301526119748188611898565b905061198360408301876118dd565b61199060608301866118f6565b61199d60808301856118f6565b6119aa60a0830184611937565b979650505050505050565b6119be81611925565b81146119c957600080fd5b50565b6000813590506119db816119b5565b92915050565b6119ea816118d1565b81146119f557600080fd5b50565b600081359050611a07816119e1565b92915050565b60008060408385031215611a2457611a236116b0565b5b6000611a32858286016119cc565b9250506020611a43858286016119f8565b9150509250929050565b60008060408385031215611a6457611a636116b0565b5b600083013567ffffffffffffffff811115611a8257611a816116b5565b5b611a8e858286016117d2565b925050602083013567ffffffffffffffff811115611aaf57611aae6116b5565b5b611abb858286016117d2565b9150509250929050565b600060208284031215611adb57611ada6116b0565b5b6000611ae9848285016119cc565b91505092915050565b6000602082019050611b0760008301846118f6565b92915050565b600060c0820190508181036000830152611b278189611898565b9050611b366020830188611937565b611b4360408301876118f6565b611b5060608301866118f6565b611b5d60808301856118dd565b81810360a0830152611b6f8184611898565b9050979650505050505050565b60008060408385031215611b9357611b926116b0565b5b6000611ba1858286016119cc565b925050602083013567ffffffffffffffff811115611bc257611bc16116b5565b5b611bce858286016117d2565b9150509250929050565b600080600060608486031215611bf157611bf06116b0565b5b600084013567ffffffffffffffff811115611c0f57611c0e6116b5565b5b611c1b868287016117d2565b9350506020611c2c868287016119cc565b925050604084013567ffffffffffffffff811115611c4d57611c4c6116b5565b5b611c59868287016117d2565b9150509250925092565b600081905092915050565b6000611c7982611849565b611c838185611c63565b9350611c93818560208601611865565b80840191505092915050565b6000611cab8284611c6e565b915081905092915050565b7f4e487b7100000000000000000000000000000000000000000000000000000000600052602260045260246000fd5b60006002820490506001821680611cfd57607f821691505b60208210811415611d1157611d10611cb6565b5b50919050565b7f20596f7520617265206e6f742061646d696e0000000000000000000000000000600082015250565b6000611d4d601283611854565b9150611d5882611d17565b602082019050919050565b60006020820190508181036000830152611d7c81611d40565b9050919050565b7f437573746f6d657220697320616c72656164792070726573656e742c20706c6560008201527f6173652063616c6c206d6f64696679437573746f6d657220746f20656469742060208201527f74686520637573746f6d65722064617461000000000000000000000000000000604082015250565b6000611e05605183611854565b9150611e1082611d83565b606082019050919050565b60006020820190508181036000830152611e3481611df8565b9050919050565b7f20796f7520617265206e6f7420617574686f72697365642062616e6b20746f2060008201527f646f776e766f7465000000000000000000000000000000000000000000000000602082015250565b6000611e97602883611854565b9150611ea282611e3b565b604082019050919050565b60006020820190508181036000830152611ec681611e8a565b9050919050565b7f4e487b7100000000000000000000000000000000000000000000000000000000600052601160045260246000fd5b6000611f07826118ec565b9150611f12836118ec565b9250827fffffffffffffffffffffffffffffffffffffffffffffffffffffffffffffffff03821115611f4757611f46611ecd565b5b828201905092915050565b7f596f7520617265206e6f7420617574686f72697365642062616e6b0000000000600082015250565b6000611f88601b83611854565b9150611f9382611f52565b602082019050919050565b60006020820190508181036000830152611fb781611f7b565b9050919050565b7f20796f7520617265206e6f7420617574686f72697365642062616e6b20746f2060008201527f7570766f74650000000000000000000000000000000000000000000000000000602082015250565b600061201a602683611854565b915061202582611fbe565b604082019050919050565b600060208201905081810360008301526120498161200d565b9050919050565b600061205b826118ec565b91507fffffffffffffffffffffffffffffffffffffffffffffffffffffffffffffffff82141561208e5761208d611ecd565b5b600182019050919050565b7f437573746f6d6572206973206e6f742070726573656e7420696e20746865206460008201527f6174616261736500000000000000000000000000000000000000000000000000602082015250565b60006120f5602783611854565b915061210082612099565b604082019050919050565b60006020820190508181036000830152612124816120e8565b905091905056fea2646970667358221220f7c5e28fc483c486cc8bc134be16f197a9c3ce09580b9f34b845f50a1590363164736f6c634300080a0033",
  "linkReferences": {},
  "deployedLinkReferences": {}
}